:020000040800F2
:100000000010002091030008DB030008DD03000856
:1000100000000000000000000000000000000000E0
:10002000000000000000000000000000DF030008E6
:100030000000000000000000E1030008E3030008E6
:10004000E7030008E9030008EB030008ED030008DC
:10005000EF030008F1030008F3030008F5030008AC
:10006000F7030008F9030008FB030008FD0300087C
:10007000FF03000801040008030400080504000849
:1000800007040008090400080B0400080D04000818
:100090000F040008110400081304000815040008E8
:1000A00017040008190400081B0400081D040008B8
:1000B0001F04000821040008230400082504000888
:1000C0002704000810B5064C2378002B07D1054BF8
:1000D000002B02D0044800E000BF0123237010BDB4
:1000E0006C000020000000001019000808B5084B43
:1000F000002B03D00748084900E000BF0748036809
:10010000002B03D0064B002B00D0984708BDC046FB
:100110000000000010190008700000206C00002092
:1001200000000000164B002B00D1144B9D464022CE
:1001300092029A1A924600218B460F461348144A9F
:10014000121A00F089FA0F4B002B00D098470E4B83
:10015000002B00D098470020002104000D000D481E
:10016000002802D00C4800E000BF00F04FFA200049
:10017000290000F0D3F800F033FAC0460000080070
:100180000010002000000000000000006C000020B3
:10019000A40600200000000000000000F0B5444666
:1001A00056464D465F46F0B48046041C802585B017
:1001B0000434012000216D00464680235B005B086B
:1001C0005A18FF2AFBDC5A1E1140C91889B2814215
:1001D00009DD8B00F31822881F8827801A80628827
:1001E0005F8867805A8001300434A842E5D1072037
:1001F0000121B04603908A46524653009BB299466D
:1002000000230293039F029A3248BA401204120C50
:10021000111C40315200825A4900415E5242C80FBF
:1002200012B24118D00F82184910521089B292B2FE
:10023000FF2B3AD80FB2BC46614617B20191BC46BB
:100240005246991889B2890041440027CC5F0220A8
:100250000A5E019E604666435043F613C013361A89
:100260000198674642437C43D213E413A4189A00D2
:1002700042440020155E5788E80F83465D446D10A8
:10028000B6B2ADB2A81B088038B2C70FBB465844FF
:100290004010A4B280B24B44071B751920189BB2C2
:1002A0004F8015805080FF2BCAD90298013083B24D
:1002B00002909A45A6D8039B013BDBB20393FF2B28
:1002C00001D0CA4698E705B03CBC90469946A24684
:1002D000AB46F0BDE814000810B5030E041C002B5B
:1002E00013D1030CDBB2002B12D1020AD2B20823C5
:1002F000002A10D10020021C1A43111C51438C42C9
:1003000000D3101C5B08F6D110BD80231B02F1E75F
:1003100080231B01EEE78023ECE7C046184B8020CA
:10032000C000184A70B51D180020195E10880232EE
:100330004143091419800433AB42F5D112496C18BA
:10034000201CFFF72BFF0022A35E0221605E5B43AF
:100350004043C018FFF7C0FF20800434AC42F2D104
:10036000094A0A4EA41800250023E25E291C301C0D
:10037000013500F079F90434802DF5D1002070BDED
:10038000A00000207416000800FCFFFF681600089B
:100390000749084A084B9B1A05DD002408591051EB
:1003A00004349C42FADB05488047054800470000BA
:1003B0001C190008000000206C0000203104000817
:1003C000250100081849194A002301E00B60043197
:1003D0009142FBD3FFF7A2FFFEE7FEE7FEE7FEE751
:1003E000FEE7FEE7FEE7FEE7FEE7FEE7FEE7FEE7E5
:1003F000FEE7FEE7FEE7FEE7FEE7FEE7FEE7FEE7D5
:10040000FEE7FEE7FEE7FEE7FEE7FEE7FEE7FEE7C4
:10041000FEE7FEE7FEE7FEE7FEE7FEE7FEE7FEE7B4
:10042000FEE7FEE7FEE7FEE76C000020A4060020E2
:100430003B4B0122196882B0114319605868394951
:1004400001405960186838490140196018683749F7
:10045000014019605868364901405960D96A0F2037
:100460008143D962186B334901401963596BA0204D
:100470009143002259639A60009201921968802288
:1004800052020A431A608022191C9202C00102E043
:10049000009B834208D00B6813400193009B0133FB
:1004A0000093019B002BF3D01D4B1A6880239B0205
:1004B000134006D001230193019B012B05D002B00C
:1004C00070470193019B012BF9D11B4B144811225A
:1004D0001A6043688021436043688904436042682E
:1004E000164B13404360426888235B031343436009
:1004F000026880235B04134303600368084A0B42CD
:10050000FBD0536803218B435360516802230B4394
:1005100053600C2153680B40082BFBD1CFE7C0463A
:10052000001002400CB8FFF8FFFFF6FEFFFFFBFFD4
:10053000FFFFC0FFACFEFFFF00200240FF7FC0FFB7
:10054000002934D00123002210B488422CD3012486
:100550002407A14204D2814202D209011B01F8E71B
:10056000E400A14204D2814202D249005B00F8E7D4
:10057000884201D3401A1A434C08A04202D3001B00
:100580005C0822438C08A04202D3001B9C08224333
:10059000CC08A04202D3001BDC082243002803D071
:1005A0001B0901D00909E3E7101C10BC70470028A3
:1005B00001D00020C04307B4024802A140180290B5
:1005C00003BDC046190000000029F0D003B5FFF7B5
:1005D000B9FF0EBC4243891A1847C0467047C0464F
:1005E000084B10B5041C002B02D0002100E000BF16
:1005F000054B1868836A002B00D09847201C00F038
:1006000065FFC046000000007818000870B50E4B6A
:100610000E4D0024ED1AAD101E1CAC4204D0A300F8
:10062000F35898470134F8E700F052FF084B094DA2
:100630000024ED1AAD101E1CAC4204D0A300F358E8
:1006400098470134F8E770BD640000206400002082
:100650006400002068000020031C8218934202D02E
:1006600019700133FAE770470FB40B4B13B51C68D0
:10067000002C05D0A369002B02D1201C00F09CFCAB
:1006800005ABA168201C049A019300F02FF816BC5A
:1006900008BC04B01847C04660000020936810B53D
:1006A000013B9360002B05DA9469A34208DBCBB2CF
:1006B0000A2B05D01368581C10601970C8B201E0ED
:1006C00000F0A6FA10BDF8B5061C0F1C141CD518B6
:1006D000AC4208D02178301C3A1CFFF7DFFF013410
:1006E000431CF5D100E00020F8BD0000F0B59FB03C
:1006F000061C0F1C03920593002804D08169002971
:1007000001D100F059FC754B9F4201D1776808E098
:10071000734B9F4201D1B76803E0724B9F4200D1F7
:10072000F768BB891A070AD53B69002B07D006ADCD
:1007300000236B6120236B763023AB763BE0301CCB
:10074000391C00F0BDFA0028F1D001204042C2E07F
:10075000059A111D12680591002A76DB0992013471
:1007600023782E2B00D181E021785F48032200F00E
:10077000E3FC002807D05C492A68431A40209840CF
:100780001043286001342178631C584806220393E3
:10079000297600F0D1FC002800D18AE0544B002BD0
:1007A0007ED1059B072207339343083305936A697B
:1007B000049953186B61039C2378002B04D103998F
:1007C000611A029110D003E0252BF8D00134F3E731
:1007D000301C391C039A029BFFF775FF013075D05E
:1007E0006A69029953186B612378002B6ED001223D
:1007F00052426A606A4600235B3201342B60EB6030
:10080000AB601370AB6521783A48052200F094FC88
:10081000002808D0374A0134831A012098402B68F9
:1008200018432860EFE72B68D90603D56A462021D4
:100830005B3211701A0703D56A462B215B321170A7
:1008400022782A2A84D0099B05E05242EA600222DB
:1008500013432B6083E72278303A092A04D80A210F
:100860004B4301349B18F6E7099379E763782A2B09
:1008700009D1059B02341A1D1B680592002B0DDA65
:1008800001235B420AE0013400232278303A092A2E
:1008900004D80A214B4301349B18F6E7079363E71A
:1008A00005AB0093301C291C3A1C134B00E000BF21
:1008B00007E005AB0093301C291C3A1C0E4B00F0DE
:1008C00091F804900499013100D070E7BB895A0671
:1008D00000D53AE70B981FB0F0BDC046B01800082D
:1008E000D0180008F01800088218000886180008C0
:1008F000000000007C180008C7060008F7B5151CAA
:1009000001930A698B68061C0C1C934200DA131CC5
:10091000221C2B6043321278002A01D001332B6055
:100920002068800602D52B6802332B6021680627D9
:100930000F401FD0231C43331B785A1E934122685B
:1009400092061FD5E11840313020C870211C5A1C76
:1009500045310978A21840320233D17012E0221CCE
:10096000301C019919320123089FB847013011D07A
:10097000009F01370097E0682968009F431A9F4253
:10098000EDDBD7E7221C301C01994332089FB847A2
:10099000013002D10120404223E0206806212B686B
:1009A000E26801400025042903D1D51AEB43DB1787
:1009B0001D40A26823699A4201DDD31AED18002771
:1009C0000097009FAF420BDA221C301C01991A32AB
:1009D0000123089FB8470130DCD0009F0137EFE7C3
:1009E0000020FEBDF0B50D1C8BB04335069205907E
:1009F000079304950B7E0C1C109A6E2B00D1A7E078
:100A000011D8632B22D009D8002B00D1B0E0582B8D
:100A100000D0C0E045310B707B4D4EE0642B1CD004
:100A2000692B1AD0B7E0732B00D1A5E009D86F2B42
:100A300029D0702B00D0AEE00E68202333430B602A
:100A400036E0752B1FD0782B32D0A4E013680D1C34
:100A5000191D423511601B689FE0216813680E065E
:100A600003D5191D11601E6805E04806F9D5191D4A
:100A7000116000215E5E644B002E3BDA049D2D2246
:100A800076422A7036E0216813680E0603D5191DD8
:100A900011601E6804E04806F9D5191D1E88116012
:100AA000594B227E039308276F2A1ED00A271CE089
:100AB000231C78214533554D197011682368081D92
:100AC000039510601E0601D50E6802E05806FBD59E
:100AD0000E88D90702D52022134323601027002E49
:100AE00003D1226820239A432260231C002243332F
:100AF0001A7001E003930A276368A360002B03DBED
:100B00002568042295432560002E02D1049D002B08
:100B10000ED0049D301C391CFFF756FD0398013D93
:100B2000435C301C2B70391CFFF70AFD061EF1D107
:100B3000082F09D12168C90706D5626823699A423E
:100B400002DC013D30232B70049E731B23612AE0DD
:100B5000086813684969050604D5181D10601B68EC
:100B6000196005E04606F8D5181D10601B6819804D
:100B700000232361049D16E01368191D11601D6890
:100B8000281C00F0DFFB63682061984200D92361D4
:100B90002069606004E0251C42352B70012323612D
:100BA000049E00233370079E05980096211C09AA15
:100BB000069BFFF7A3FE013002D10120404221E055
:100BC0002A1C059806992369079DA8470130F4D08F
:100BD0002668B60705D4099BE068984212DA181C0B
:100BE00010E00025E0680999431A9D42F3DA221CBF
:100BF0000598069919320123079EB0470130DCD0D1
:100C00000135EFE70BB0F0BD8D1800089E18000805
:100C100070B5051C0E1C141C002804D08269002A23
:100C200001D100F0C9F9234B9C4201D16C6808E066
:100C3000214B9C4201D1AC6803E0204B9C4200D187
:100C4000EC68A369A360A3891A070AD52369002B5E
:100C500007D022682369F6B2D01A626990420FDB8E
:100C600008E0281C211C00F02BF80028F1D00120FE
:100C700040421DE0281C211C00F01EF90028F6D17E
:100C8000A3680130013BA36023685A1C22601E70D8
:100C90006369984205D0A389301CDA0708D50A2E6B
:100CA00006D1281C211C00F007F90028DFD1301CD8
:100CB00070BDC046B0180008D0180008F018000831
:100CC000344B70B51D68061C0C1C002D05D0A9699D
:100CD000002902D1281C00F06FF92F4B9C4201D152
:100CE0006C6808E02D4B9C4201D1AC6803E02C4BB2
:100CF0009C4200D1EC68A28993B2190721D4D9068D
:100D000005D40923336040231A43A2813FE05A07E8
:100D100013D5616B002908D0231C4433994202D0BB
:100D2000301C00F015FA00236363A3892422934347
:100D3000A3810023636023692360A38908221343EE
:100D4000A381216900290BD1A389A02292001A4016
:100D500080239B009A4203D0301C211C00F09CF998
:100D6000A38901221A4005D061690022A2604A428B
:100D7000A26103E0990700D46269A26022690020A1
:100D8000824206D1190604D540221343A3810120D3
:100D9000404270BD60000020B0180008D018000864
:100DA000F0180008F7B58B89051C0C1C19075ED4D8
:100DB0006268002A02DC276C002F1ADDE76A002F28
:100DC00017D000222E682A60802252011A4001D0DA
:100DD000626D15E0281C216A0123B847021C411CE2
:100DE0000ED12B68002B0BD01D2B01D0162B02D15E
:100DF0002E6000205EE0A38940210B43A38159E0CF
:100E0000A3895F0706D56168636B521A002B01D076
:100E1000276CD21B281C216A0023E76AB847A289E5
:100E2000411C06D12B68002B03D01D2B01D0162BA3
:100E300019D10023636023692360D70405D5411CC1
:100E400002D12A68002A00D16065616B2E600029FA
:100E5000CFD0231C4433994202D0281C00F078F9EB
:100E60000020606326E040231A43A28122E0266925
:100E7000002EBED027680022BF1B0197266099076D
:100E800000D16269A260019F002FB2DD281C216A97
:100E9000321C019BA76AB847002806DCA3894022C0
:100EA00013430120A381404204E0019F36183F1AFA
:100EB0000197E8E7FEBD00000A6938B5051C0C1C67
:100EC000002A01D100201CE0002804D08369002BF7
:100ED00001D100F071F80B4B9C4201D16C6808E025
:100EE000094B9C4201D1AC6803E0084B9C4200D105
:100EF000EC680C22A35E002BE4D0281C211CFFF719
:100F000051FF38BDB0180008D0180008F0180008CC
:100F1000F8B5041C071C4834002C12D0A56866687C
:100F2000013E0CD4AB89012B07D90E22AB5E0133F5
:100F300003D0381C291CFFF7BFFF6835F0E7246891
:100F4000EAE7F8BD002310B5041C0360436083602A
:100F500081814366C281036143618361191C082258
:100F60005C30FFF779FB054B24626362044BA3629C
:100F7000044BE362044B236310BDC046AD1200086E
:100F8000D51200080D1300083913000870B54B1E68
:100F900068255D430E1C291C743100F021F9041EE4
:100FA00008D00021016046602A1C0C30A060683225
:100FB000FFF752FB201C70BD836913B5041C002B86
:100FC00027D18364C3640365124B134A1B68826292
:100FD000984201D101238361201C00F01FF860605A
:100FE000201C00F01BF8A060201C00F017F8042162
:100FF000E06000226068FFF7A5FFA06809210122D8
:10100000FFF7A0FFE06812210222FFF79BFF0123F8
:10101000A36113BD78180008110F0008F8B51D4B27
:10102000071C1E68B269002A02D1301CFFF7C4FFFA
:101030004836B4687368013B05D40C22A55E002DC8
:1010400010D06834F7E73368002B06D1381C042130
:10105000FFF79CFF3060002801D03668E9E70C23D9
:101060003B6016E001235B42E381201C0123A38146
:1010700065662560A560656025616561A5615C3078
:10108000291C0822FFF7E8FA6563A563A564E564F7
:10109000201CF8BD78180008F0B58B8991B0051CAC
:1010A0000C1C9A0725D40E23C95E002906DAA789ED
:1010B00080231F400FD0002740260EE001AA00F039
:1010C0006FF90028F3DB029BF0273F02184A1F400C
:1010D000BF187B425F418026F600281C311C00F0BF
:1010E0007FF800280CD1A3899A051FD4022213434C
:1010F000A381231C4733236023610123636115E02F
:101100000C4B8022AB62A38920601343A381206132
:101110006661002F0AD00E23E15E281C00F052F910
:10112000002803D0A38901221343A38111B0F0BD8D
:1011300000E0FFFF110F0008C9B28218904204D0EE
:1011400003788B4202D00130F8E70020704700009E
:1011500030B5002940D004390B68002B00DAC918DB
:101160001E4A1368141C002B02D14B60116033E03F
:1011700099420FD208680A189A4205D1136852683A
:10118000C01808604A6000E04B60216024E08A4299
:1011900003D8131C5A68002AF9D11D685C198C42C7
:1011A0000BD10968691858181960904214D1146855
:1011B0005268091919605A600EE08C4202D90C235A
:1011C000036009E008680C18944203D1146852685F
:1011D000001908604A60596030BDC0468C0000208C
:1011E00070B50323CD1C9D430835061C0C2D01D280
:1011F0000C2501E0002D3FDB8D423DD3204B1C68C8
:101200001A1C211C002913D00868431B0DD40B2B7A
:1012100002D90B60CC181EE08C4202D163681360C7
:101220001AE0486860600C1C16E00C1C4968E9E78D
:10123000144C2068002803D1301C00F025F82060F1
:10124000301C291C00F020F8431C15D0C41C0323BB
:101250009C4384420AD12560201C0B300722231DA9
:101260009043C31A0BD05A42E25008E0211A301CB6
:1012700000F00AF80130EED10C233360002070BD7D
:101280008C0000208800002038B5074C0023051C86
:10129000081C236000F0F8F8431C03D12368002BDE
:1012A00000D02B6038BDC046A006002038B50C1C0D
:1012B0000E25495F00F0ACF8002803DB626D1318BF
:1012C000636503E0A289024B1340A38138BDC04689
:1012D000FFEFFFFFF8B51E1C8B89051C0C1C171CAB
:1012E000DA0505D50E23C95E0022022300F07CF842
:1012F000A289054B281C1340A3810E22A15E331C3A
:101300003A1C00F027F8F8BDFFEFFFFF38B50C1CC2
:101310000E25495F00F068F8A389421C03D1054AF5
:101320001340A38104E0802252011343A38160652E
:1013300038BDC046FFEFFFFF08B50E23C95E00F0C1
:101340001DF808BD0023C25C0133002AFBD1581EE2
:101350007047000038B5084C051C00202060081CB0
:10136000111C1A1C00F0AAF8431C03D12368002B9F
:1013700000D02B6038BDC046A006002038B5074C11
:101380000023051C081C236000F056F8431C03D101
:101390002368002B00D02B6038BDC046A00600207B
:1013A00038B5074C0023051C081C111C236000F0F5
:1013B0004BF8431C03D12368002B00D02B6038BDB1
:1013C000A006002038B5074C0023051C081C23602C
:1013D00000F042F8431C03D12368002B00D02B609F
:1013E00038BDC046A006002038B5084C051C0020BA
:1013F0002060081C111C1A1C00F036F8431C03D195
:101400002368002B00D02B6038BDC046A00600200A
:1014100038B5084C051C00202060081C111C1A1C43
:1014200000F02AF8431C03D12368002B00D02B6066
:1014300038BDC046A0060020024B58220120404281
:101440001A607047A0060020024B5822012040423B
:101450001A607047A0060020024B582200201A6034
:101460007047C046A0060020024B5822012040428F
:101470001A607047A0060020024B5822012040420B
:101480001A607047A0060020094B1A68002A01D193
:10149000084A1A601A6869461018884205D9064B2E
:1014A0000C2201201A60404201E01860101C7047B5
:1014B00090000020A8060020A0060020024B582221
:1014C000012040421A607047A0060020FEE700009D
:1014D000F8B5C046F8BC08BC9E467047F8B5C04693
:1014E000F8BC08BC9E4670470000240348066A0901
:1014F0008C0CAB0FC812E215F9180B1C1A1F232213
:10150000282526281F2B112EFB30DF33BA368C39C5
:10151000563C173FCE417A441C47B4493F4CBF4E1E
:1015200033519B53F5554258825AB35CD75EEB60FA
:10153000F162E864CF66A6686D6A236CC96D5E6F60
:10154000E2705472B573047541766B77847889794B
:101550007C7A5C7B297CE37C897D1D7E9C7E097F77
:10156000617FA67FD87FF57FFF7FF57FD87FA67F3D
:10157000617F097F9C7E1D7E897DE37C297C5C7B6D
:101580007C7A897984786B7741760475B573547267
:10159000E2705E6FC96D236C6D6AA668CF66E86401
:1015A000F162EB60D75EB35C825A4258F5559B53AB
:1015B0003351BF4E3F4CB4491C477A44CE41173F8C
:1015C000563C8C39BA36DF33FB30112E1F2B2628C0
:1015D000282523221A1F0B1CF918E215C812AB0F7D
:1015E0008C0C6A09480624030000DCFCB8F996F666
:1015F00074F355F038ED1EEA07E7F5E3E6E0DDDDCC
:10160000D8DADAD7E1D4EFD105CF21CC46C974C6F8
:10161000AAC3E9C032BE86BBE4B84CB6C1B341B17F
:10162000CDAE65AC0BAABEA77EA54DA329A1159F83
:101630000F9D189B31995A979395DD933792A290FD
:101640001E8FAC8D4B8CFC8ABF8995887C877786F2
:101650008485A484D7831D837782E3816481F780A6
:101660009F805A8028800B802564202C20256420B0
:101670000D0A0000C301C701D201E401FF012102EC
:101680004A027C02B502F6023F039103EB034E04CB
:10169000BA042F05AD053406C60661070708B7086A
:1016A0007209390A0A0BE70BD10CC60DC80ED60F0A
:1016B000F2101B1252139614E9154A17BA18381A69
:1016C000C51B621D0E1FC92095226F245A2655285E
:1016D000602A7B2CA62EE1302C338835F3376D3A07
:1016E000F83C923F3B42F344BA47904A734D6550F1
:1016F000645370568859AD5CDD5F19635F66AF69EE
:10170000086D6A70D4734677BE7A3C7EC081478587
:10171000D388618CF18F82931397A49A339EBFA1D3
:1017200048A5CDA84DACC6AF38B3A2B603BA59BDD3
:10173000A5C0E5C317C73CCA52CD59D04ED333D646
:1017400005D9C3DB6EDE03E183E3ECE53EE878EA2E
:1017500099ECA1EE8FF062F219F4B5F535F798F82F
:10176000DDF905FB0EFCF9FCC6FD73FE01FF70FF01
:10177000BFFFEFFFFFFFEFFFBFFF70FF01FF73FE33
:10178000C6FDF9FC0EFC05FBDDF998F835F7B5F55B
:1017900019F462F28FF0A1EE99EC78EA3EE8ECE5FC
:1017A00083E303E16EDEC3DB05D933D64ED359D0D4
:1017B00052CD3CCA17C7E5C3A5C059BD03BAA2B6EE
:1017C00038B3C6AF4DACCDA848A5BFA1339EA49AEF
:1017D00013978293F18F618CD3884785C0813C7EBB
:1017E000BE7A4677D4736A70086DAF695F66196315
:1017F000DD5FAD5C8859705664536550734D904AF7
:10180000BA47F3443B42923FF83C6D3AF337883590
:101810002C33E130A62E7B2C602A55285A266F24C3
:101820009522C9200E1F621DC51B381ABA184A1707
:10183000E915961452131B12F210D60FC80EC60DDE
:10184000D10CE70B0A0B390A7209B70807086107C0
:10185000C6063406AD052F05BA044E04EB0391030A
:101860003F03F602B5027C024A022102FF01E401B5
:10187000D201C7014300000000000020232D302BBF
:101880002000686C4C006566674546470030313281
:1018900033343536373839414243444546003031D8
:1018A0003233343536373839616263646566000037
:1018B0000000000000000000000000000000000028
:1018C0000000000000000000000000000000000018
:1018D0000000000000000000000000000000000008
:1018E00000000000000000000000000000000000F8
:1018F00000000000000000000000000000000000E8
:1019000000000000000000000000000000000000D7
:0419100000000000D3
:0819140010E8FF7F0100000054
:10191C0000000000B0180008D0180008F0180008EB
:10192C0000000000000000000000000000000000AB
:10193C007418000800000000000000000000000007
:10194C00000000000000000000000000000000008B
:10195C00000000000000000000000000000000007B
:10196C00000000000000000000000000000000006B
:0C197C0000000020ED000008C50000087D
:0400000508000000EF
:00000001FF
