:020000040800F2
:1000000000100020C10600080707000809070008C3
:100010000B0700080D0700080F070008000000008C
:1000200000000000000000000000000011070008B0
:100030001307000800000000150700081707000854
:100040001B0700081D0700081F07000821070008FC
:1000500023070008250700082707000829070008CC
:100060002B0700082D0700082F070008310700089C
:10007000330700083507000837070008390700086C
:100080003B0700083D0700083F070008000000008C
:100090000000000000000000000000004107000810
:1000A00043070008450700084707000849070008FC
:1000B0004B0700084D070008000000004F0700082C
:1000C000510700080000000000000000530700086E
:1000D0000000000085060008570700080000000027
:1000E000590700085B0700085D07000800000000D2
:1000F0000000000000000000000000000000000000
:1001000000000000000000000000000000000000EF
:1001100000000000000000005F0700086107000801
:1001200010B5054C237833B9044B13B10448AFF331
:1001300000800123237010BD7C000020000000001F
:10014000FC08000808B5064B1BB106480649AFF38A
:1001500000800648036813B1054B03B1984708BDFA
:1001600000000000FC080008800000207C00002047
:1001700000000000154B002B08BF134B9D46A3F554
:10018000803A00218B460F461348144A121A00F099
:100190009BFB0F4B002B00D098470E4B002B00D041
:1001A00098470020002104000D000D48002802D0CF
:1001B0000C48AFF3008000F061FB2000290000F044
:1001C00035FA00F047FB00BF0000080000100020D7
:1001D00000000000000000007C000020C40000209F
:1001E0000000000000000000CB782DE9F00303F0D0
:1001F0000F06DB0648BF8B780A8848BF1E4312F003
:10020000FF0F26D00768002301254FF00F0803E0F9
:100210000133082B1BD00A8805FA03F42240A242BE
:10022000F6D19C0008FA04F906FA04F491F803C028
:1002300027EA0907BCF1280F47EA040734D0BCF1CC
:10024000480F03F1010308BF0261082BE3D10760E7
:100250000A88FF2A25D94768002301254FF00F0C93
:1002600003E00133082B1BD00A8803F1080405FAC8
:1002700004F42240A242F4D19C000CFA04F906FADC
:1002800004F8CC780133282C04BF4261CC7827EAEB
:100290000907482C08BF0261082B47EA0807E3D189
:1002A0004760BDE8F00370474261B1E74FF6FF7168
:1002B0000222042301808270C37070478368194250
:1002C0000CBF00200120704730B420494B6803F078
:1002D0000C03042B01D0082B20D01D4A02601B4BBD
:1002E0001C495D681C4CC5F303154D5DEA40426036
:1002F0005D68C5F302254D5D22FA05F585605D68F0
:10030000C5F3C225495DCA40C2605B68C3F381334F
:10031000E35C30BCB2FBF3F2026170474B684C689F
:10032000C3F38343E20303F1020304D40B4A02FB49
:1003300003F20260D3E7CA6A054902F00F020132F4
:10034000B1FBF2F203FB02F20260C8E700100240C8
:1003500000127A00040000200000002000093D0087
:10036000044B9A6919B922EA00009861704710435A
:10037000986170470010024030B5038ACA889BB26A
:1003800023F4405313430382828904460B898888EF
:100390000D4692B24989034322F4B0520B4322F036
:1003A0000C0213439BB2A381A38AAA899BB223F4B4
:1003B000407387B01343A38201A8FFF785FFA1898B
:1003C000049A1A48039B09B2844208BF13462A685C
:1003D000002903EB8303B4BF5200920003EB8303B5
:1003E0001349B3FBF2F3A1FB0352A089520900B2F7
:1003F0006425002802FB15334FEA02120ADB1B01B9
:100400003233A1FB0351C1F343110A4392B222815B
:1004100007B030BDDB003233A1FB0301C1F3421151
:100420000A4392B2228107B030BD00BF00380140BC
:100430001F85EB5100234FF416510C2201604281BD
:100440008380C38003818381704700BF838929B97A
:1004500023F400531B041B0C838170479BB243F4AD
:1004600000538381704700BF01F01F0310B4C1F334
:1004700042110124A14204FA03F310D002290CBF57
:100480001030143004682AB924EA030303605DF8CD
:10049000044B7047234303605DF8044B70470C30F6
:1004A000F0E700BFC1F308018180704710B4C1F3C9
:1004B0004213012401F01F02A34204FA02F217D0F2
:1004C000022B0CBF038A838A9BB21340028892B22C
:1004D00053B1090A012303FA01F111420CBF0020B4
:1004E00001205DF8044B704718465DF8044B7047D7
:1004F00083899BB21340E9E7090A01238B40DB4360
:100500009BB20380704700BF2DE9F0414FF480405B
:1005100001211D4CFFF724FF04200121FFF720FFDC
:10052000DFF8748001210820FFF71AFF2046FFF74B
:10053000BDFE02261822154D4FF400732146404699
:10054000E27023800427A670FFF74EFE4FF480630D
:10055000214640462380A670E770FFF745FE2846F7
:10056000FFF768FF4FF41653294609482B60FFF741
:1005700003FF282321462780A670E3700548BDE8C5
:10058000F041FFF731BE00BFC0000020A0000020F6
:1005900000380140000C0140000801402DE9F843FB
:1005A0001D480421FFF78AFE1C4B18801C4B98B194
:1005B000732265215027722664251F705E70DA70E1
:1005C0001A7118489D7199705971174B07240022B0
:1005D00004801A80BDE8F883732265214FF04E092C
:1005E0004FF06F084FF0740C50277226642583F883
:1005F000009083F801809A71DA710A4883F802C08A
:10060000DF701E715D7259711972074B0A24002246
:1006100004801A80BDE8F883000C01409C00002093
:10062000B4000020B00000209800002038B562B669
:10063000FFF76AFF0F4840F225510122FFF714FF30
:1006400001220C4840F22661FFF70EFF0948012104
:10065000FFF7FCFEFFF7A2FF074B2022074D084CD7
:100660005A6000E000BF2A8823889A42FAD1FFF737
:1006700095FFF8E70038014000E100E09800002015
:10068000B000002010B50B4840F22661FFF70EFFC6
:1006900048B1094C094A23880648D15CFFF702FF9C
:1006A000238801332380034840F22661BDE81040CF
:1006B000FFF722BF0038014098000020B40000205E
:1006C0000649074A074B9A42BEBF51F8040B42F84D
:1006D000040BF8E70448804704480047080900086D
:1006E000000000207C0000206D0700087501000854
:1006F0001C491D4A002301E041F8043B9142FBD311
:10070000FFF794FFFEE7FEE7FEE7FEE7FEE7FEE702
:10071000FEE7FEE7FEE7FEE7FEE7FEE7FEE7FEE7B1
:10072000FEE7FEE7FEE7FEE7FEE7FEE7FEE7FEE7A1
:10073000FEE7FEE7FEE7FEE7FEE7FEE7FEE7FEE791
:10074000FEE7FEE7FEE7FEE7FEE7FEE7FEE7FEE781
:10075000FEE7FEE7FEE7FEE7FEE7FEE7FEE7FEE771
:10076000FEE700007C000020C400002010B4364BDF
:10077000364A196883B041F00101196058680021B8
:1007800002405A6018684FF41F0420F0847020F46F
:100790008030186018681A4620F480201860586865
:1007A00020F4FE0058609C60D962009101911968A4
:1007B00041F48031196003E0009BB3F5A06F09D0CC
:1007C000136803F400330193009B01330093019BF2
:1007D000002BF1D01C4B1B6813F4003318BF01230E
:1007E0000193019B012B07D0194B4FF000629A60D7
:1007F00003B05DF8044B7047134B5A6819465A60B2
:100800005A685A605A685A605A6822F47C125A60D0
:100810005A6842F498125A601A6842F080721A605C
:100820000B68094A9B01FBD55368114623F003036B
:100830005360536843F0020353604B6803F00C03AA
:10084000082BFAD1D0E700BF001002400000FFF8EB
:1008500000ED00E008B5074B044613B10021AFF3EB
:100860000080054B1868836A03B19847204600F062
:1008700033F800BF00000000F808000870B50E4B08
:100880000E4D0024ED1AAD101E46AC4204D056F8B1
:10089000242090470134F8E700F020F8084D094B78
:1008A0000024ED1AAD101E46AC4204D056F82420A8
:1008B00090470134F8E770BD7400002074000020F8
:1008C000780000207400002002440346934202D0C6
:1008D00003F8011BFAE77047FEE70000F8B500BF18
:1008E000F8BC08BC9E467047F8B500BFF8BC08BC11
:1008F0009E467047430000001400002000000000E6
:0809000074F8FF7F0100000004
:1009080002040608000000000102030401020304B7
:1009180006070809000000000000000000000000B1
:1009280000000000000000000000000000000000BF
:1009380000000000F40800080000000000000000AB
:10094800000000000000000000000000000000009F
:10095800000000000000000000000000000000008F
:10096800000000000000000000000000000000007F
:0C097800000000004501000821010008FB
:0400000508000000EF
:00000001FF
